{
  "contractName": "crowdSale",
  "abi": [
    {
      "inputs": [
        {
          "internalType": "uint256",
          "name": "rate",
          "type": "uint256"
        },
        {
          "internalType": "address payable",
          "name": "wallet",
          "type": "address"
        },
        {
          "internalType": "contract IERC20",
          "name": "token",
          "type": "address"
        }
      ],
      "stateMutability": "nonpayable",
      "type": "constructor"
    },
    {
      "inputs": [],
      "name": "_weiRaised",
      "outputs": [
        {
          "internalType": "uint256",
          "name": "",
          "type": "uint256"
        }
      ],
      "stateMutability": "view",
      "type": "function"
    },
    {
      "inputs": [
        {
          "internalType": "address",
          "name": "_addr",
          "type": "address"
        }
      ],
      "name": "viewAllowed",
      "outputs": [
        {
          "internalType": "bool",
          "name": "",
          "type": "bool"
        }
      ],
      "stateMutability": "view",
      "type": "function"
    },
    {
      "stateMutability": "payable",
      "type": "receive"
    },
    {
      "inputs": [
        {
          "internalType": "address",
          "name": "recepient",
          "type": "address"
        }
      ],
      "name": "buyTokens",
      "outputs": [],
      "stateMutability": "payable",
      "type": "function"
    }
  ],
  "bytecode": "0x60806040523480156200001157600080fd5b5060405162000c9b38038062000c9b83398181016040528101906200003791906200027b565b600083116200007d576040517f08c379a000000000000000000000000000000000000000000000000000000000815260040162000074906200036e565b60405180910390fd5b600073ffffffffffffffffffffffffffffffffffffffff168273ffffffffffffffffffffffffffffffffffffffff161415620000f0576040517f08c379a0000000000000000000000000000000000000000000000000000000008152600401620000e79062000390565b60405180910390fd5b600073ffffffffffffffffffffffffffffffffffffffff168173ffffffffffffffffffffffffffffffffffffffff16141562000163576040517f08c379a00000000000000000000000000000000000000000000000000000000081526004016200015a906200034c565b60405180910390fd5b8260048190555081600360006101000a81548173ffffffffffffffffffffffffffffffffffffffff021916908373ffffffffffffffffffffffffffffffffffffffff16021790555080600260006101000a81548173ffffffffffffffffffffffffffffffffffffffff021916908373ffffffffffffffffffffffffffffffffffffffff16021790555033600160006101000a81548173ffffffffffffffffffffffffffffffffffffffff021916908373ffffffffffffffffffffffffffffffffffffffff16021790555050505062000543565b6000815190506200024781620004f5565b92915050565b6000815190506200025e816200050f565b92915050565b600081519050620002758162000529565b92915050565b60008060006060848603121562000297576200029662000429565b5b6000620002a78682870162000264565b9350506020620002ba8682870162000236565b9250506040620002cd868287016200024d565b9150509250925092565b6000620002e6602483620003b2565b9150620002f3826200042e565b604082019050919050565b60006200030d601483620003b2565b91506200031a826200047d565b602082019050919050565b600062000334602583620003b2565b91506200034182620004a6565b604082019050919050565b600060208201905081810360008301526200036781620002d7565b9050919050565b600060208201905081810360008301526200038981620002fe565b9050919050565b60006020820190508181036000830152620003ab8162000325565b9050919050565b600082825260208201905092915050565b6000620003d082620003ff565b9050919050565b6000620003e482620003ff565b9050919050565b6000620003f882620003c3565b9050919050565b600073ffffffffffffffffffffffffffffffffffffffff82169050919050565b6000819050919050565b600080fd5b7f43726f776473616c653a20746f6b656e20697320746865207a65726f2061646460008201527f7265737300000000000000000000000000000000000000000000000000000000602082015250565b7f43726f776473616c653a20726174652069732030000000000000000000000000600082015250565b7f43726f776473616c653a2077616c6c657420697320746865207a65726f20616460008201527f6472657373000000000000000000000000000000000000000000000000000000602082015250565b6200050081620003d7565b81146200050c57600080fd5b50565b6200051a81620003eb565b81146200052657600080fd5b50565b62000534816200041f565b81146200054057600080fd5b50565b61074880620005536000396000f3fe6080604052600436106100385760003560e01c80637516ed541461005657806394a5aa8d14610093578063ec8ac4d8146100be57610051565b3661005157610046336100da565b61004f336101c4565b005b600080fd5b34801561006257600080fd5b5061007d60048036038101906100789190610447565b610357565b60405161008a9190610528565b60405180910390f35b34801561009f57600080fd5b506100a86103ac565b6040516100b59190610563565b60405180910390f35b6100d860048036038101906100d39190610447565b6101c4565b005b600160009054906101000a900473ffffffffffffffffffffffffffffffffffffffff1673ffffffffffffffffffffffffffffffffffffffff163373ffffffffffffffffffffffffffffffffffffffff161461016a576040517f08c379a000000000000000000000000000000000000000000000000000000000815260040161016190610543565b60405180910390fd5b60016000808373ffffffffffffffffffffffffffffffffffffffff1673ffffffffffffffffffffffffffffffffffffffff16815260200190815260200160002060006101000a81548160ff02191690831515021790555050565b60003414156101d257600080fd5b600073ffffffffffffffffffffffffffffffffffffffff168173ffffffffffffffffffffffffffffffffffffffff16141561020c57600080fd5b600115156000808373ffffffffffffffffffffffffffffffffffffffff1673ffffffffffffffffffffffffffffffffffffffff16815260200190815260200160002060009054906101000a900460ff1615151461026857600080fd5b600034905060006004548261027d91906105e5565b9050600260009054906101000a900473ffffffffffffffffffffffffffffffffffffffff1673ffffffffffffffffffffffffffffffffffffffff166323b872dd3085846040518463ffffffff1660e01b81526004016102de939291906104f1565b602060405180830381600087803b1580156102f857600080fd5b505af115801561030c573d6000803e3d6000fd5b505050506040513d601f19601f820116820180604052508101906103309190610474565b506103396103b2565b816005600082825461034b919061058f565b92505081905550505050565b60008060008373ffffffffffffffffffffffffffffffffffffffff1673ffffffffffffffffffffffffffffffffffffffff16815260200190815260200160002060009054906101000a900460ff169050919050565b60055481565b600360009054906101000a900473ffffffffffffffffffffffffffffffffffffffff1673ffffffffffffffffffffffffffffffffffffffff166108fc349081150290604051600060405180830381858888f1935050505015801561041a573d6000803e3d6000fd5b50565b60008135905061042c816106e4565b92915050565b600081519050610441816106fb565b92915050565b60006020828403121561045d5761045c6106b6565b5b600061046b8482850161041d565b91505092915050565b60006020828403121561048a576104896106b6565b5b600061049884828501610432565b91505092915050565b6104aa8161063f565b82525050565b6104b981610651565b82525050565b60006104cc600d8361057e565b91506104d7826106bb565b602082019050919050565b6104eb8161067d565b82525050565b600060608201905061050660008301866104a1565b61051360208301856104a1565b61052060408301846104e2565b949350505050565b600060208201905061053d60008301846104b0565b92915050565b6000602082019050818103600083015261055c816104bf565b9050919050565b600060208201905061057860008301846104e2565b92915050565b600082825260208201905092915050565b600061059a8261067d565b91506105a58361067d565b9250827fffffffffffffffffffffffffffffffffffffffffffffffffffffffffffffffff038211156105da576105d9610687565b5b828201905092915050565b60006105f08261067d565b91506105fb8361067d565b9250817fffffffffffffffffffffffffffffffffffffffffffffffffffffffffffffffff048311821515161561063457610633610687565b5b828202905092915050565b600061064a8261065d565b9050919050565b60008115159050919050565b600073ffffffffffffffffffffffffffffffffffffffff82169050919050565b6000819050919050565b7f4e487b7100000000000000000000000000000000000000000000000000000000600052601160045260246000fd5b600080fd5b7f796f75206e6f74206f776e657200000000000000000000000000000000000000600082015250565b6106ed8161063f565b81146106f857600080fd5b50565b61070481610651565b811461070f57600080fd5b5056fea264697066735822122002739d416a049405ae4e7fcb28fcfa3d4f2b754039e8f9de71884fccf9c1c0bd64736f6c63430008070033",
  "immutableReferences": {},
  "source": "// SPDX-License-Identifier: MIT\n\npragma solidity ^0.8.7;\n\nimport \"./MyToken.sol\";\nimport \"./KYC.sol\";\n\ncontract crowdSale is KYC  {\n\n    // The token being sold\n    IERC20 private _token;\n\n    // Address where funds are collected\n    address payable private _wallet;\n\n    uint256 private _rate;\n\n    uint256 public _weiRaised;\n\n    constructor (uint256 rate, address payable wallet, IERC20 token) {\n        require(rate > 0, \"Crowdsale: rate is 0\");\n        require(wallet != address(0), \"Crowdsale: wallet is the zero address\");\n        require(address(token) != address(0), \"Crowdsale: token is the zero address\");\n\n        _rate = rate;\n        _wallet = wallet;\n        _token = token;\n        owner = msg.sender;\n    }\n\n    receive()external payable {\n        setAllowedTrue(msg.sender);\n        buyTokens(msg.sender);\n    }\n\n    function buyTokens(address recepient) public payable {\n        require(msg.value != 0);\n        require(recepient != address(0));\n        require(allowed[recepient] == true);\n        uint256 weiAmount = msg.value;\n        uint256 tokenAmount = weiAmount * _rate;\n        _token.transferFrom(address(this),recepient,tokenAmount);\n        transferToOwner();\n\n        // update state\n        _weiRaised += weiAmount;\n    }\n\n    function transferToOwner() private {\n        _wallet.transfer(msg.value);\n    }\n\n}",
  "sourcePath": "/Users/pavel/truffleTest/contracts/crowdSale.sol",
  "compiler": {
    "name": "solc",
    "version": "0.8.7+commit.e28d00a7.Emscripten.clang"
  },
  "schemaVersion": "3.3.4",
  "updatedAt": "2022-05-30T19:11:10.736Z",
  "devdoc": {
    "kind": "dev",
    "methods": {},
    "version": 1
  },
  "userdoc": {
    "kind": "user",
    "methods": {},
    "version": 1
  }
}