{
  "contractName": "crowdSale",
  "abi": [
    {
      "inputs": [
        {
          "internalType": "uint256",
          "name": "rate",
          "type": "uint256"
        },
        {
          "internalType": "address payable",
          "name": "wallet",
          "type": "address"
        },
        {
          "internalType": "contract IERC20",
          "name": "token",
          "type": "address"
        }
      ],
      "stateMutability": "nonpayable",
      "type": "constructor"
    },
    {
      "inputs": [],
      "name": "_weiRaised",
      "outputs": [
        {
          "internalType": "uint256",
          "name": "",
          "type": "uint256"
        }
      ],
      "stateMutability": "view",
      "type": "function",
      "constant": true
    },
    {
      "inputs": [
        {
          "internalType": "address",
          "name": "_addr",
          "type": "address"
        }
      ],
      "name": "setAllowedTrue",
      "outputs": [],
      "stateMutability": "nonpayable",
      "type": "function"
    },
    {
      "inputs": [
        {
          "internalType": "address",
          "name": "_addr",
          "type": "address"
        }
      ],
      "name": "viewAllowed",
      "outputs": [
        {
          "internalType": "bool",
          "name": "",
          "type": "bool"
        }
      ],
      "stateMutability": "view",
      "type": "function",
      "constant": true
    },
    {
      "stateMutability": "payable",
      "type": "receive",
      "payable": true
    },
    {
      "inputs": [
        {
          "internalType": "address",
          "name": "recepient",
          "type": "address"
        }
      ],
      "name": "buyTokens",
      "outputs": [],
      "stateMutability": "payable",
      "type": "function",
      "payable": true
    }
  ],
  "bytecode": "0x60806040523480156200001157600080fd5b5060405162000d7c38038062000d7c83398181016040528101906200003791906200027b565b33600160006101000a81548173ffffffffffffffffffffffffffffffffffffffff021916908373ffffffffffffffffffffffffffffffffffffffff16021790555060008311620000be576040517f08c379a0000000000000000000000000000000000000000000000000000000008152600401620000b5906200036e565b60405180910390fd5b600073ffffffffffffffffffffffffffffffffffffffff168273ffffffffffffffffffffffffffffffffffffffff16141562000131576040517f08c379a0000000000000000000000000000000000000000000000000000000008152600401620001289062000390565b60405180910390fd5b600073ffffffffffffffffffffffffffffffffffffffff168173ffffffffffffffffffffffffffffffffffffffff161415620001a4576040517f08c379a00000000000000000000000000000000000000000000000000000000081526004016200019b906200034c565b60405180910390fd5b8260048190555081600360006101000a81548173ffffffffffffffffffffffffffffffffffffffff021916908373ffffffffffffffffffffffffffffffffffffffff16021790555080600260006101000a81548173ffffffffffffffffffffffffffffffffffffffff021916908373ffffffffffffffffffffffffffffffffffffffff16021790555050505062000543565b6000815190506200024781620004f5565b92915050565b6000815190506200025e816200050f565b92915050565b600081519050620002758162000529565b92915050565b60008060006060848603121562000297576200029662000429565b5b6000620002a78682870162000264565b9350506020620002ba8682870162000236565b9250506040620002cd868287016200024d565b9150509250925092565b6000620002e6602483620003b2565b9150620002f3826200042e565b604082019050919050565b60006200030d601483620003b2565b91506200031a826200047d565b602082019050919050565b600062000334602583620003b2565b91506200034182620004a6565b604082019050919050565b600060208201905081810360008301526200036781620002d7565b9050919050565b600060208201905081810360008301526200038981620002fe565b9050919050565b60006020820190508181036000830152620003ab8162000325565b9050919050565b600082825260208201905092915050565b6000620003d082620003ff565b9050919050565b6000620003e482620003ff565b9050919050565b6000620003f882620003c3565b9050919050565b600073ffffffffffffffffffffffffffffffffffffffff82169050919050565b6000819050919050565b600080fd5b7f43726f776473616c653a20746f6b656e20697320746865207a65726f2061646460008201527f7265737300000000000000000000000000000000000000000000000000000000602082015250565b7f43726f776473616c653a20726174652069732030000000000000000000000000600082015250565b7f43726f776473616c653a2077616c6c657420697320746865207a65726f20616460008201527f6472657373000000000000000000000000000000000000000000000000000000602082015250565b6200050081620003d7565b81146200050c57600080fd5b50565b6200051a81620003eb565b81146200052657600080fd5b50565b62000534816200041f565b81146200054057600080fd5b50565b61082980620005536000396000f3fe6080604052600436106100435760003560e01c80637516ed541461012457806394a5aa8d146101615780639acc2e851461018c578063ec8ac4d8146101b55761011f565b3661011f57610051336101d1565b60006004543461006191906106c6565b9050600260009054906101000a900473ffffffffffffffffffffffffffffffffffffffff1673ffffffffffffffffffffffffffffffffffffffff1663095ea7b333836040518363ffffffff1660e01b81526004016100c09291906105e0565b602060405180830381600087803b1580156100da57600080fd5b505af11580156100ee573d6000803e3d6000fd5b505050506040513d601f19601f820116820180604052508101906101129190610563565b5061011c336102bb565b50005b600080fd5b34801561013057600080fd5b5061014b60048036038101906101469190610536565b610446565b6040516101589190610609565b60405180910390f35b34801561016d57600080fd5b5061017661049b565b6040516101839190610644565b60405180910390f35b34801561019857600080fd5b506101b360048036038101906101ae9190610536565b6101d1565b005b6101cf60048036038101906101ca9190610536565b6102bb565b005b600160009054906101000a900473ffffffffffffffffffffffffffffffffffffffff1673ffffffffffffffffffffffffffffffffffffffff163373ffffffffffffffffffffffffffffffffffffffff1614610261576040517f08c379a000000000000000000000000000000000000000000000000000000000815260040161025890610624565b60405180910390fd5b60016000808373ffffffffffffffffffffffffffffffffffffffff1673ffffffffffffffffffffffffffffffffffffffff16815260200190815260200160002060006101000a81548160ff02191690831515021790555050565b60003414156102c957600080fd5b600073ffffffffffffffffffffffffffffffffffffffff168173ffffffffffffffffffffffffffffffffffffffff16141561030357600080fd5b600115156000808373ffffffffffffffffffffffffffffffffffffffff1673ffffffffffffffffffffffffffffffffffffffff16815260200190815260200160002060009054906101000a900460ff1615151461035f57600080fd5b60006004543461036f91906106c6565b9050600260009054906101000a900473ffffffffffffffffffffffffffffffffffffffff1673ffffffffffffffffffffffffffffffffffffffff1663a9059cbb83836040518363ffffffff1660e01b81526004016103ce9291906105e0565b602060405180830381600087803b1580156103e857600080fd5b505af11580156103fc573d6000803e3d6000fd5b505050506040513d601f19601f820116820180604052508101906104209190610563565b506104296104a1565b346005600082825461043b9190610670565b925050819055505050565b60008060008373ffffffffffffffffffffffffffffffffffffffff1673ffffffffffffffffffffffffffffffffffffffff16815260200190815260200160002060009054906101000a900460ff169050919050565b60055481565b600360009054906101000a900473ffffffffffffffffffffffffffffffffffffffff1673ffffffffffffffffffffffffffffffffffffffff166108fc349081150290604051600060405180830381858888f19350505050158015610509573d6000803e3d6000fd5b50565b60008135905061051b816107c5565b92915050565b600081519050610530816107dc565b92915050565b60006020828403121561054c5761054b610797565b5b600061055a8482850161050c565b91505092915050565b60006020828403121561057957610578610797565b5b600061058784828501610521565b91505092915050565b61059981610720565b82525050565b6105a881610732565b82525050565b60006105bb600d8361065f565b91506105c68261079c565b602082019050919050565b6105da8161075e565b82525050565b60006040820190506105f56000830185610590565b61060260208301846105d1565b9392505050565b600060208201905061061e600083018461059f565b92915050565b6000602082019050818103600083015261063d816105ae565b9050919050565b600060208201905061065960008301846105d1565b92915050565b600082825260208201905092915050565b600061067b8261075e565b91506106868361075e565b9250827fffffffffffffffffffffffffffffffffffffffffffffffffffffffffffffffff038211156106bb576106ba610768565b5b828201905092915050565b60006106d18261075e565b91506106dc8361075e565b9250817fffffffffffffffffffffffffffffffffffffffffffffffffffffffffffffffff048311821515161561071557610714610768565b5b828202905092915050565b600061072b8261073e565b9050919050565b60008115159050919050565b600073ffffffffffffffffffffffffffffffffffffffff82169050919050565b6000819050919050565b7f4e487b7100000000000000000000000000000000000000000000000000000000600052601160045260246000fd5b600080fd5b7f796f75206e6f74206f776e657200000000000000000000000000000000000000600082015250565b6107ce81610720565b81146107d957600080fd5b50565b6107e581610732565b81146107f057600080fd5b5056fea2646970667358221220e0186539e15afa46f20640036dd280dcf2f1d21de38bd2e9660622edbfcfeada64736f6c63430008070033",
  "immutableReferences": {},
  "source": "// SPDX-License-Identifier: MIT\n\npragma solidity ^0.8.7;\n\nimport \"./MyToken.sol\";\nimport \"./KYC.sol\";\n\ncontract crowdSale is KYC  {\n\n    // The token being sold\n    IERC20 private _token;\n\n    // Address where funds are collected\n    address payable private _wallet;\n\n    uint256 private _rate;\n\n    uint256 public _weiRaised;\n\n    constructor (uint256 rate, address payable wallet, IERC20 token) KYC() {\n        require(rate > 0, \"Crowdsale: rate is 0\");\n        require(wallet != address(0), \"Crowdsale: wallet is the zero address\");\n        require(address(token) != address(0), \"Crowdsale: token is the zero address\");\n\n        _rate = rate;\n        _wallet = wallet;\n        _token = token;\n    }\n\n    receive()external payable {\n        setAllowedTrue(msg.sender);\n        uint256 tokenAmount = msg.value * _rate;\n        _token.approve(msg.sender,tokenAmount);\n        buyTokens(msg.sender);\n    }\n\n    function buyTokens(address recepient) public payable {\n        require(msg.value != 0);\n        require(recepient != address(0));\n        require(allowed[recepient] == true);\n        uint256 tokenAmount = msg.value * _rate;\n        _token.transfer(recepient,tokenAmount);\n        transferToOwner();\n\n        // update state\n        _weiRaised += msg.value;\n    }\n\n    function transferToOwner() private {\n        _wallet.transfer(msg.value);\n    }\n\n}",
  "sourcePath": "/Users/pavel/truffleTest/contracts/crowdSale.sol",
  "compiler": {
    "name": "solc",
    "version": "0.8.7+commit.e28d00a7.Emscripten.clang"
  },
  "schemaVersion": "3.3.4",
  "updatedAt": "2022-05-31T11:41:44.711Z",
  "networkType": "ethereum",
  "devdoc": {
    "kind": "dev",
    "methods": {},
    "version": 1
  },
  "userdoc": {
    "kind": "user",
    "methods": {},
    "version": 1
  }
}