{
  "contractName": "crowdSale",
  "abi": [
    {
      "inputs": [
        {
          "internalType": "uint256",
          "name": "rate",
          "type": "uint256"
        },
        {
          "internalType": "address payable",
          "name": "wallet",
          "type": "address"
        },
        {
          "internalType": "contract IERC20",
          "name": "token",
          "type": "address"
        }
      ],
      "stateMutability": "nonpayable",
      "type": "constructor"
    },
    {
      "inputs": [],
      "name": "_weiRaised",
      "outputs": [
        {
          "internalType": "uint256",
          "name": "",
          "type": "uint256"
        }
      ],
      "stateMutability": "view",
      "type": "function"
    },
    {
      "inputs": [
        {
          "internalType": "address",
          "name": "_addr",
          "type": "address"
        }
      ],
      "name": "viewAllowed",
      "outputs": [
        {
          "internalType": "bool",
          "name": "",
          "type": "bool"
        }
      ],
      "stateMutability": "view",
      "type": "function"
    },
    {
      "stateMutability": "payable",
      "type": "receive"
    },
    {
      "inputs": [
        {
          "internalType": "address",
          "name": "recepient",
          "type": "address"
        }
      ],
      "name": "buyTokens",
      "outputs": [],
      "stateMutability": "payable",
      "type": "function"
    }
  ],
  "bytecode": "0x60806040523480156200001157600080fd5b5060405162000b4d38038062000b4d83398181016040528101906200003791906200023a565b600083116200007d576040517f08c379a000000000000000000000000000000000000000000000000000000000815260040162000074906200032d565b60405180910390fd5b600073ffffffffffffffffffffffffffffffffffffffff168273ffffffffffffffffffffffffffffffffffffffff161415620000f0576040517f08c379a0000000000000000000000000000000000000000000000000000000008152600401620000e7906200034f565b60405180910390fd5b600073ffffffffffffffffffffffffffffffffffffffff168173ffffffffffffffffffffffffffffffffffffffff16141562000163576040517f08c379a00000000000000000000000000000000000000000000000000000000081526004016200015a906200030b565b60405180910390fd5b8260038190555081600260006101000a81548173ffffffffffffffffffffffffffffffffffffffff021916908373ffffffffffffffffffffffffffffffffffffffff16021790555080600160006101000a81548173ffffffffffffffffffffffffffffffffffffffff021916908373ffffffffffffffffffffffffffffffffffffffff16021790555050505062000502565b6000815190506200020681620004b4565b92915050565b6000815190506200021d81620004ce565b92915050565b6000815190506200023481620004e8565b92915050565b600080600060608486031215620002565762000255620003e8565b5b6000620002668682870162000223565b93505060206200027986828701620001f5565b92505060406200028c868287016200020c565b9150509250925092565b6000620002a560248362000371565b9150620002b282620003ed565b604082019050919050565b6000620002cc60148362000371565b9150620002d9826200043c565b602082019050919050565b6000620002f360258362000371565b9150620003008262000465565b604082019050919050565b60006020820190508181036000830152620003268162000296565b9050919050565b600060208201905081810360008301526200034881620002bd565b9050919050565b600060208201905081810360008301526200036a81620002e4565b9050919050565b600082825260208201905092915050565b60006200038f82620003be565b9050919050565b6000620003a382620003be565b9050919050565b6000620003b78262000382565b9050919050565b600073ffffffffffffffffffffffffffffffffffffffff82169050919050565b6000819050919050565b600080fd5b7f43726f776473616c653a20746f6b656e20697320746865207a65726f2061646460008201527f7265737300000000000000000000000000000000000000000000000000000000602082015250565b7f43726f776473616c653a20726174652069732030000000000000000000000000600082015250565b7f43726f776473616c653a2077616c6c657420697320746865207a65726f20616460008201527f6472657373000000000000000000000000000000000000000000000000000000602082015250565b620004bf8162000396565b8114620004cb57600080fd5b50565b620004d981620003aa565b8114620004e557600080fd5b50565b620004f381620003de565b8114620004ff57600080fd5b50565b61063b80620005126000396000f3fe6080604052600436106100385760003560e01c80637516ed541461005657806394a5aa8d14610093578063ec8ac4d8146100be57610051565b3661005157610046336100da565b61004f33610134565b005b600080fd5b34801561006257600080fd5b5061007d600480360381019061007891906103b7565b6102c7565b60405161008a9190610475565b60405180910390f35b34801561009f57600080fd5b506100a861031c565b6040516100b59190610490565b60405180910390f35b6100d860048036038101906100d391906103b7565b610134565b005b60016000808373ffffffffffffffffffffffffffffffffffffffff1673ffffffffffffffffffffffffffffffffffffffff16815260200190815260200160002060006101000a81548160ff02191690831515021790555050565b600034141561014257600080fd5b600073ffffffffffffffffffffffffffffffffffffffff168173ffffffffffffffffffffffffffffffffffffffff16141561017c57600080fd5b600115156000808373ffffffffffffffffffffffffffffffffffffffff1673ffffffffffffffffffffffffffffffffffffffff16815260200190815260200160002060009054906101000a900460ff161515146101d857600080fd5b60003490506000600354826101ed9190610501565b9050600160009054906101000a900473ffffffffffffffffffffffffffffffffffffffff1673ffffffffffffffffffffffffffffffffffffffff166323b872dd3085846040518463ffffffff1660e01b815260040161024e9392919061043e565b602060405180830381600087803b15801561026857600080fd5b505af115801561027c573d6000803e3d6000fd5b505050506040513d601f19601f820116820180604052508101906102a091906103e4565b506102a9610322565b81600460008282546102bb91906104ab565b92505081905550505050565b60008060008373ffffffffffffffffffffffffffffffffffffffff1673ffffffffffffffffffffffffffffffffffffffff16815260200190815260200160002060009054906101000a900460ff169050919050565b60045481565b600260009054906101000a900473ffffffffffffffffffffffffffffffffffffffff1673ffffffffffffffffffffffffffffffffffffffff166108fc349081150290604051600060405180830381858888f1935050505015801561038a573d6000803e3d6000fd5b50565b60008135905061039c816105d7565b92915050565b6000815190506103b1816105ee565b92915050565b6000602082840312156103cd576103cc6105d2565b5b60006103db8482850161038d565b91505092915050565b6000602082840312156103fa576103f96105d2565b5b6000610408848285016103a2565b91505092915050565b61041a8161055b565b82525050565b6104298161056d565b82525050565b61043881610599565b82525050565b60006060820190506104536000830186610411565b6104606020830185610411565b61046d604083018461042f565b949350505050565b600060208201905061048a6000830184610420565b92915050565b60006020820190506104a5600083018461042f565b92915050565b60006104b682610599565b91506104c183610599565b9250827fffffffffffffffffffffffffffffffffffffffffffffffffffffffffffffffff038211156104f6576104f56105a3565b5b828201905092915050565b600061050c82610599565b915061051783610599565b9250817fffffffffffffffffffffffffffffffffffffffffffffffffffffffffffffffff04831182151516156105505761054f6105a3565b5b828202905092915050565b600061056682610579565b9050919050565b60008115159050919050565b600073ffffffffffffffffffffffffffffffffffffffff82169050919050565b6000819050919050565b7f4e487b7100000000000000000000000000000000000000000000000000000000600052601160045260246000fd5b600080fd5b6105e08161055b565b81146105eb57600080fd5b50565b6105f78161056d565b811461060257600080fd5b5056fea2646970667358221220df9a17e8d56466e79682ce6aef250d2c3206a7de09893131c1b275bbf3ab4adb64736f6c63430008070033",
  "immutableReferences": {},
  "source": "// SPDX-License-Identifier: MIT\n\npragma solidity ^0.8.7;\n\nimport \"./MyToken.sol\";\nimport \"./KYC.sol\";\n\ncontract crowdSale is KYC  {\n\n    // The token being sold\n    IERC20 private _token;\n\n    // Address where funds are collected\n    address payable private _wallet;\n\n    uint256 private _rate;\n\n    uint256 public _weiRaised;\n\n    constructor (uint256 rate, address payable wallet, IERC20 token) {\n        require(rate > 0, \"Crowdsale: rate is 0\");\n        require(wallet != address(0), \"Crowdsale: wallet is the zero address\");\n        require(address(token) != address(0), \"Crowdsale: token is the zero address\");\n\n        _rate = rate;\n        _wallet = wallet;\n        _token = token;\n    }\n\n    receive()external payable {\n        setAllowedTrue(msg.sender);\n        buyTokens(msg.sender);\n    }\n\n    function buyTokens(address recepient) public payable {\n        require(msg.value != 0);\n        require(recepient != address(0));\n        require(allowed[recepient] == true);\n        uint256 weiAmount = msg.value;\n        uint256 tokenAmount = weiAmount * _rate;\n        _token.transferFrom(address(this),recepient,tokenAmount);\n        transferToOwner();\n\n        // update state\n        _weiRaised += weiAmount;\n    }\n\n    function transferToOwner() private {\n        _wallet.transfer(msg.value);\n    }\n\n}",
  "sourcePath": "/Users/pavel/truffleTest/contracts/crowdSale.sol",
  "compiler": {
    "name": "solc",
    "version": "0.8.7+commit.e28d00a7.Emscripten.clang"
  },
  "schemaVersion": "3.3.4",
  "updatedAt": "2022-05-30T16:42:31.876Z",
  "devdoc": {
    "kind": "dev",
    "methods": {},
    "version": 1
  },
  "userdoc": {
    "kind": "user",
    "methods": {},
    "version": 1
  }
}