{
  "contractName": "crowdSale",
  "abi": [
    {
      "inputs": [
        {
          "internalType": "uint256",
          "name": "rate",
          "type": "uint256"
        },
        {
          "internalType": "address payable",
          "name": "wallet",
          "type": "address"
        },
        {
          "internalType": "contract IERC20",
          "name": "token",
          "type": "address"
        }
      ],
      "stateMutability": "nonpayable",
      "type": "constructor"
    },
    {
      "inputs": [],
      "name": "_weiRaised",
      "outputs": [
        {
          "internalType": "uint256",
          "name": "",
          "type": "uint256"
        }
      ],
      "stateMutability": "view",
      "type": "function"
    },
    {
      "inputs": [],
      "name": "buyTokens",
      "outputs": [],
      "stateMutability": "payable",
      "type": "function"
    }
  ],
  "bytecode": "0x608060405234801561001057600080fd5b506040516108b03803806108b083398181016040528101906100329190610224565b60008311610075576040517f08c379a000000000000000000000000000000000000000000000000000000000815260040161006c90610300565b60405180910390fd5b600073ffffffffffffffffffffffffffffffffffffffff168273ffffffffffffffffffffffffffffffffffffffff1614156100e5576040517f08c379a00000000000000000000000000000000000000000000000000000000081526004016100dc90610320565b60405180910390fd5b600073ffffffffffffffffffffffffffffffffffffffff168173ffffffffffffffffffffffffffffffffffffffff161415610155576040517f08c379a000000000000000000000000000000000000000000000000000000000815260040161014c906102e0565b60405180910390fd5b8260028190555081600160006101000a81548173ffffffffffffffffffffffffffffffffffffffff021916908373ffffffffffffffffffffffffffffffffffffffff160217905550806000806101000a81548173ffffffffffffffffffffffffffffffffffffffff021916908373ffffffffffffffffffffffffffffffffffffffff1602179055505050506104c2565b6000815190506101f48161047d565b92915050565b60008151905061020981610494565b92915050565b60008151905061021e816104ab565b92915050565b60008060006060848603121561023d5761023c6103b1565b5b600061024b8682870161020f565b935050602061025c868287016101e5565b925050604061026d868287016101fa565b9150509250925092565b6000610284602483610340565b915061028f826103b6565b604082019050919050565b60006102a7601483610340565b91506102b282610405565b602082019050919050565b60006102ca602583610340565b91506102d58261042e565b604082019050919050565b600060208201905081810360008301526102f981610277565b9050919050565b600060208201905081810360008301526103198161029a565b9050919050565b60006020820190508181036000830152610339816102bd565b9050919050565b600082825260208201905092915050565b600061035c82610387565b9050919050565b600061036e82610387565b9050919050565b600061038082610351565b9050919050565b600073ffffffffffffffffffffffffffffffffffffffff82169050919050565b6000819050919050565b600080fd5b7f43726f776473616c653a20746f6b656e20697320746865207a65726f2061646460008201527f7265737300000000000000000000000000000000000000000000000000000000602082015250565b7f43726f776473616c653a20726174652069732030000000000000000000000000600082015250565b7f43726f776473616c653a2077616c6c657420697320746865207a65726f20616460008201527f6472657373000000000000000000000000000000000000000000000000000000602082015250565b61048681610363565b811461049157600080fd5b50565b61049d81610375565b81146104a857600080fd5b50565b6104b4816103a7565b81146104bf57600080fd5b50565b6103df806104d16000396000f3fe6080604052600436106100295760003560e01c806394a5aa8d1461002e578063d0febe4c14610059575b600080fd5b34801561003a57600080fd5b50610043610063565b6040516100509190610215565b60405180910390f35b610061610069565b005b60035481565b600034905060006002548261007e9190610286565b905060008054906101000a900473ffffffffffffffffffffffffffffffffffffffff1673ffffffffffffffffffffffffffffffffffffffff166323b872dd600160009054906101000a900473ffffffffffffffffffffffffffffffffffffffff1633846040518463ffffffff1660e01b81526004016100ff939291906101de565b602060405180830381600087803b15801561011957600080fd5b505af115801561012d573d6000803e3d6000fd5b505050506040513d601f19601f820116820180604052508101906101519190610184565b5081600360008282546101649190610230565b925050819055505050565b60008151905061017e81610392565b92915050565b60006020828403121561019a5761019961038d565b5b60006101a88482850161016f565b91505092915050565b6101ba81610328565b82525050565b6101c9816102e0565b82525050565b6101d88161031e565b82525050565b60006060820190506101f360008301866101b1565b61020060208301856101c0565b61020d60408301846101cf565b949350505050565b600060208201905061022a60008301846101cf565b92915050565b600061023b8261031e565b91506102468361031e565b9250827fffffffffffffffffffffffffffffffffffffffffffffffffffffffffffffffff0382111561027b5761027a61035e565b5b828201905092915050565b60006102918261031e565b915061029c8361031e565b9250817fffffffffffffffffffffffffffffffffffffffffffffffffffffffffffffffff04831182151516156102d5576102d461035e565b5b828202905092915050565b60006102eb826102fe565b9050919050565b60008115159050919050565b600073ffffffffffffffffffffffffffffffffffffffff82169050919050565b6000819050919050565b60006103338261033a565b9050919050565b60006103458261034c565b9050919050565b6000610357826102fe565b9050919050565b7f4e487b7100000000000000000000000000000000000000000000000000000000600052601160045260246000fd5b600080fd5b61039b816102f2565b81146103a657600080fd5b5056fea2646970667358221220f3e2f00fc9845992ba53d16c1c2df6f5d42e217e5b999aebdfeeef24cad30dba64736f6c63430008070033",
  "immutableReferences": {},
  "source": "// SPDX-License-Identifier: MIT\n\npragma solidity ^0.8.7;\n\nimport \"./MyToken.sol\";\n\ncontract crowdSale  {\n\n    // The token being sold\n    IERC20 private _token;\n\n    // Address where funds are collected\n    address payable private _wallet;\n\n    uint256 private _rate;\n\n    uint256 public _weiRaised;\n\n    constructor (uint256 rate, address payable wallet, IERC20 token) {\n        require(rate > 0, \"Crowdsale: rate is 0\");\n        require(wallet != address(0), \"Crowdsale: wallet is the zero address\");\n        require(address(token) != address(0), \"Crowdsale: token is the zero address\");\n\n        _rate = rate;\n        _wallet = wallet;\n        _token = token;\n    }\n\n    function buyTokens() public payable {\n        uint256 weiAmount = msg.value;\n        uint256 tokenAmount = weiAmount * _rate;\n        _token.transferFrom(_wallet,msg.sender,tokenAmount);\n\n        // update state\n        _weiRaised += weiAmount;\n    }\n\n}",
  "sourcePath": "/Users/pavel/truffleTest/contracts/crowdSale.sol",
  "compiler": {
    "name": "solc",
    "version": "0.8.7+commit.e28d00a7.Emscripten.clang"
  },
  "schemaVersion": "3.3.4",
  "updatedAt": "2022-05-29T17:42:22.578Z",
  "devdoc": {
    "kind": "dev",
    "methods": {},
    "version": 1
  },
  "userdoc": {
    "kind": "user",
    "methods": {},
    "version": 1
  }
}