{
  "contractName": "KYC",
  "abi": [
    {
      "inputs": [
        {
          "internalType": "address",
          "name": "_addr",
          "type": "address"
        }
      ],
      "name": "viewAllowed",
      "outputs": [
        {
          "internalType": "bool",
          "name": "",
          "type": "bool"
        }
      ],
      "stateMutability": "view",
      "type": "function"
    }
  ],
  "bytecode": "0x608060405234801561001057600080fd5b506101b1806100206000396000f3fe608060405234801561001057600080fd5b506004361061002b5760003560e01c80637516ed5414610030575b600080fd5b61004a600480360381019061004591906100ca565b610060565b6040516100579190610106565b60405180910390f35b60008060008373ffffffffffffffffffffffffffffffffffffffff1673ffffffffffffffffffffffffffffffffffffffff16815260200190815260200160002060009054906101000a900460ff169050919050565b6000813590506100c481610164565b92915050565b6000602082840312156100e0576100df61015f565b5b60006100ee848285016100b5565b91505092915050565b61010081610133565b82525050565b600060208201905061011b60008301846100f7565b92915050565b600061012c8261013f565b9050919050565b60008115159050919050565b600073ffffffffffffffffffffffffffffffffffffffff82169050919050565b600080fd5b61016d81610121565b811461017857600080fd5b5056fea2646970667358221220bcf45b34dd07fc4e936640110003862475ad655676a2c514acbff71ecc095edb64736f6c63430008070033",
  "immutableReferences": {},
  "source": "// SPDX-License-Identifier: MIT\n\npragma solidity ^0.8.7;\n\ncontract KYC {\n\n    mapping(address=>bool)allowed;\n\n    function setAllowedTrue(address _addr)internal {\n        allowed[_addr] = true;\n    }\n\n    function setAllowedFalse(address _addr)internal {\n        allowed[_addr] = false;\n    }\n\n    function viewAllowed(address _addr)public view returns(bool){\n        return allowed[_addr];\n    }\n\n} ",
  "sourcePath": "/Users/pavel/truffleTest/contracts/KYC.sol",
  "compiler": {
    "name": "solc",
    "version": "0.8.7+commit.e28d00a7.Emscripten.clang"
  },
  "schemaVersion": "3.3.4",
  "updatedAt": "2022-05-30T16:42:31.374Z",
  "devdoc": {
    "kind": "dev",
    "methods": {},
    "version": 1
  },
  "userdoc": {
    "kind": "user",
    "methods": {},
    "version": 1
  }
}