{
  "contractName": "KYC",
  "abi": [
    {
      "inputs": [],
      "stateMutability": "nonpayable",
      "type": "constructor"
    },
    {
      "inputs": [
        {
          "internalType": "address",
          "name": "_addr",
          "type": "address"
        }
      ],
      "name": "setAllowedTrue",
      "outputs": [],
      "stateMutability": "nonpayable",
      "type": "function"
    },
    {
      "inputs": [
        {
          "internalType": "address",
          "name": "_addr",
          "type": "address"
        }
      ],
      "name": "viewAllowed",
      "outputs": [
        {
          "internalType": "bool",
          "name": "",
          "type": "bool"
        }
      ],
      "stateMutability": "view",
      "type": "function"
    }
  ],
  "bytecode": "0x608060405234801561001057600080fd5b5033600160006101000a81548173ffffffffffffffffffffffffffffffffffffffff021916908373ffffffffffffffffffffffffffffffffffffffff16021790555061033f806100616000396000f3fe608060405234801561001057600080fd5b50600436106100365760003560e01c80637516ed541461003b5780639acc2e851461006b575b600080fd5b610055600480360381019061005091906101db565b610087565b604051610062919061023a565b60405180910390f35b610085600480360381019061008091906101db565b6100dc565b005b60008060008373ffffffffffffffffffffffffffffffffffffffff1673ffffffffffffffffffffffffffffffffffffffff16815260200190815260200160002060009054906101000a900460ff169050919050565b600160009054906101000a900473ffffffffffffffffffffffffffffffffffffffff1673ffffffffffffffffffffffffffffffffffffffff163373ffffffffffffffffffffffffffffffffffffffff161461016c576040517f08c379a000000000000000000000000000000000000000000000000000000000815260040161016390610255565b60405180910390fd5b60016000808373ffffffffffffffffffffffffffffffffffffffff1673ffffffffffffffffffffffffffffffffffffffff16815260200190815260200160002060006101000a81548160ff02191690831515021790555050565b6000813590506101d5816102f2565b92915050565b6000602082840312156101f1576101f06102c4565b5b60006101ff848285016101c6565b91505092915050565b61021181610298565b82525050565b6000610224600d83610275565b915061022f826102c9565b602082019050919050565b600060208201905061024f6000830184610208565b92915050565b6000602082019050818103600083015261026e81610217565b9050919050565b600082825260208201905092915050565b6000610291826102a4565b9050919050565b60008115159050919050565b600073ffffffffffffffffffffffffffffffffffffffff82169050919050565b600080fd5b7f796f75206e6f74206f776e657200000000000000000000000000000000000000600082015250565b6102fb81610286565b811461030657600080fd5b5056fea26469706673582212207e7b23dcbc5e84847e5f4acdbd9e5f0082ac4eeee441b8d3c791ec328e8a660664736f6c63430008070033",
  "immutableReferences": {},
  "source": "// SPDX-License-Identifier: MIT\n\npragma solidity ^0.8.7;\n\ncontract KYC {\n\n    mapping(address=>bool)allowed;\n    address owner;\n\n    constructor () {\n        owner = msg.sender;\n    }\n\n    modifier onlyOwner () {\n        require(msg.sender == owner , \"you not owner\");\n        _;\n    }\n\n    function setAllowedTrue(address _addr)public onlyOwner{\n        allowed[_addr] = true;\n    }\n\n    function setAllowedFalse(address _addr)internal onlyOwner{\n        allowed[_addr] = false;\n    }\n\n    function viewAllowed(address _addr)public view returns(bool){\n        return allowed[_addr];\n    }\n\n} ",
  "sourcePath": "/Users/pavel/truffleTest/contracts/KYC.sol",
  "compiler": {
    "name": "solc",
    "version": "0.8.7+commit.e28d00a7.Emscripten.clang"
  },
  "schemaVersion": "3.3.4",
  "updatedAt": "2022-05-31T09:48:10.008Z",
  "devdoc": {
    "kind": "dev",
    "methods": {},
    "version": 1
  },
  "userdoc": {
    "kind": "user",
    "methods": {},
    "version": 1
  }
}