{
  "contractName": "MyToken",
  "abi": [
    {
      "inputs": [
        {
          "internalType": "uint256",
          "name": "_initialSupply",
          "type": "uint256"
        },
        {
          "internalType": "uint256",
          "name": "_maxSupply",
          "type": "uint256"
        }
      ],
      "stateMutability": "nonpayable",
      "type": "constructor"
    },
    {
      "anonymous": false,
      "inputs": [
        {
          "indexed": true,
          "internalType": "address",
          "name": "owner",
          "type": "address"
        },
        {
          "indexed": true,
          "internalType": "address",
          "name": "spender",
          "type": "address"
        },
        {
          "indexed": false,
          "internalType": "uint256",
          "name": "value",
          "type": "uint256"
        }
      ],
      "name": "Approval",
      "type": "event"
    },
    {
      "anonymous": false,
      "inputs": [
        {
          "indexed": true,
          "internalType": "address",
          "name": "from",
          "type": "address"
        },
        {
          "indexed": true,
          "internalType": "address",
          "name": "to",
          "type": "address"
        },
        {
          "indexed": false,
          "internalType": "uint256",
          "name": "value",
          "type": "uint256"
        }
      ],
      "name": "Transfer",
      "type": "event"
    },
    {
      "inputs": [
        {
          "internalType": "address",
          "name": "owner",
          "type": "address"
        },
        {
          "internalType": "address",
          "name": "spender",
          "type": "address"
        }
      ],
      "name": "allowance",
      "outputs": [
        {
          "internalType": "uint256",
          "name": "",
          "type": "uint256"
        }
      ],
      "stateMutability": "view",
      "type": "function"
    },
    {
      "inputs": [
        {
          "internalType": "address",
          "name": "spender",
          "type": "address"
        },
        {
          "internalType": "uint256",
          "name": "amount",
          "type": "uint256"
        }
      ],
      "name": "approve",
      "outputs": [
        {
          "internalType": "bool",
          "name": "",
          "type": "bool"
        }
      ],
      "stateMutability": "nonpayable",
      "type": "function"
    },
    {
      "inputs": [
        {
          "internalType": "address",
          "name": "account",
          "type": "address"
        }
      ],
      "name": "balanceOf",
      "outputs": [
        {
          "internalType": "uint256",
          "name": "",
          "type": "uint256"
        }
      ],
      "stateMutability": "view",
      "type": "function"
    },
    {
      "inputs": [],
      "name": "decimals",
      "outputs": [
        {
          "internalType": "uint8",
          "name": "",
          "type": "uint8"
        }
      ],
      "stateMutability": "view",
      "type": "function"
    },
    {
      "inputs": [
        {
          "internalType": "address",
          "name": "spender",
          "type": "address"
        },
        {
          "internalType": "uint256",
          "name": "subtractedValue",
          "type": "uint256"
        }
      ],
      "name": "decreaseAllowance",
      "outputs": [
        {
          "internalType": "bool",
          "name": "",
          "type": "bool"
        }
      ],
      "stateMutability": "nonpayable",
      "type": "function"
    },
    {
      "inputs": [
        {
          "internalType": "address",
          "name": "spender",
          "type": "address"
        },
        {
          "internalType": "uint256",
          "name": "addedValue",
          "type": "uint256"
        }
      ],
      "name": "increaseAllowance",
      "outputs": [
        {
          "internalType": "bool",
          "name": "",
          "type": "bool"
        }
      ],
      "stateMutability": "nonpayable",
      "type": "function"
    },
    {
      "inputs": [],
      "name": "name",
      "outputs": [
        {
          "internalType": "string",
          "name": "",
          "type": "string"
        }
      ],
      "stateMutability": "view",
      "type": "function"
    },
    {
      "inputs": [],
      "name": "symbol",
      "outputs": [
        {
          "internalType": "string",
          "name": "",
          "type": "string"
        }
      ],
      "stateMutability": "view",
      "type": "function"
    },
    {
      "inputs": [],
      "name": "totalSupply",
      "outputs": [
        {
          "internalType": "uint256",
          "name": "",
          "type": "uint256"
        }
      ],
      "stateMutability": "view",
      "type": "function"
    },
    {
      "inputs": [
        {
          "internalType": "address",
          "name": "to",
          "type": "address"
        },
        {
          "internalType": "uint256",
          "name": "amount",
          "type": "uint256"
        }
      ],
      "name": "transfer",
      "outputs": [
        {
          "internalType": "bool",
          "name": "",
          "type": "bool"
        }
      ],
      "stateMutability": "nonpayable",
      "type": "function"
    },
    {
      "inputs": [
        {
          "internalType": "address",
          "name": "from",
          "type": "address"
        },
        {
          "internalType": "address",
          "name": "to",
          "type": "address"
        },
        {
          "internalType": "uint256",
          "name": "amount",
          "type": "uint256"
        }
      ],
      "name": "transferFrom",
      "outputs": [
        {
          "internalType": "bool",
          "name": "",
          "type": "bool"
        }
      ],
      "stateMutability": "nonpayable",
      "type": "function"
    },
    {
      "inputs": [
        {
          "internalType": "address",
          "name": "owner",
          "type": "address"
        },
        {
          "internalType": "uint256",
          "name": "amount",
          "type": "uint256"
        }
      ],
      "name": "testMint",
      "outputs": [],
      "stateMutability": "nonpayable",
      "type": "function"
    }
  ],
  "bytecode": "0x60806040523480156200001157600080fd5b5060405162001a8138038062001a81833981810160405281019062000037919062000342565b6040518060400160405280600781526020017f4d59544f4b454e000000000000000000000000000000000000000000000000008152506040518060400160405280600281526020017f4d4d0000000000000000000000000000000000000000000000000000000000008152508160039080519060200190620000bb9291906200027b565b508060049080519060200190620000d49291906200027b565b505050620000e93383620000f860201b60201c565b80600681905550505062000554565b600073ffffffffffffffffffffffffffffffffffffffff168273ffffffffffffffffffffffffffffffffffffffff1614156200016b576040517f08c379a00000000000000000000000000000000000000000000000000000000081526004016200016290620003c1565b60405180910390fd5b6200017f600083836200027160201b60201c565b806002600082825462000193919062000411565b92505081905550806000808473ffffffffffffffffffffffffffffffffffffffff1673ffffffffffffffffffffffffffffffffffffffff1681526020019081526020016000206000828254620001ea919062000411565b925050819055508173ffffffffffffffffffffffffffffffffffffffff16600073ffffffffffffffffffffffffffffffffffffffff167fddf252ad1be2c89b69c2b068fc378daa952ba7f163c4a11628f55a4df523b3ef83604051620002519190620003e3565b60405180910390a36200026d600083836200027660201b60201c565b5050565b505050565b505050565b828054620002899062000478565b90600052602060002090601f016020900481019282620002ad5760008555620002f9565b82601f10620002c857805160ff1916838001178555620002f9565b82800160010185558215620002f9579182015b82811115620002f8578251825591602001919060010190620002db565b5b5090506200030891906200030c565b5090565b5b80821115620003275760008160009055506001016200030d565b5090565b6000815190506200033c816200053a565b92915050565b600080604083850312156200035c576200035b6200050c565b5b60006200036c858286016200032b565b92505060206200037f858286016200032b565b9150509250929050565b600062000398601f8362000400565b9150620003a58262000511565b602082019050919050565b620003bb816200046e565b82525050565b60006020820190508181036000830152620003dc8162000389565b9050919050565b6000602082019050620003fa6000830184620003b0565b92915050565b600082825260208201905092915050565b60006200041e826200046e565b91506200042b836200046e565b9250827fffffffffffffffffffffffffffffffffffffffffffffffffffffffffffffffff03821115620004635762000462620004ae565b5b828201905092915050565b6000819050919050565b600060028204905060018216806200049157607f821691505b60208210811415620004a857620004a7620004dd565b5b50919050565b7f4e487b7100000000000000000000000000000000000000000000000000000000600052601160045260246000fd5b7f4e487b7100000000000000000000000000000000000000000000000000000000600052602260045260246000fd5b600080fd5b7f45524332303a206d696e7420746f20746865207a65726f206164647265737300600082015250565b62000545816200046e565b81146200055157600080fd5b50565b61151d80620005646000396000f3fe608060405234801561001057600080fd5b50600436106100b45760003560e01c806370a082311161007157806370a08231146101a357806395d89b41146101d3578063a457c2d7146101f1578063a9059cbb14610221578063dd62ed3e14610251578063f28e093d14610281576100b4565b806306fdde03146100b9578063095ea7b3146100d757806318160ddd1461010757806323b872dd14610125578063313ce567146101555780633950935114610173575b600080fd5b6100c161029d565b6040516100ce9190610f4c565b60405180910390f35b6100f160048036038101906100ec9190610d50565b61032f565b6040516100fe9190610f31565b60405180910390f35b61010f610352565b60405161011c919061108e565b60405180910390f35b61013f600480360381019061013a9190610cfd565b61035c565b60405161014c9190610f31565b60405180910390f35b61015d61038b565b60405161016a91906110a9565b60405180910390f35b61018d60048036038101906101889190610d50565b610394565b60405161019a9190610f31565b60405180910390f35b6101bd60048036038101906101b89190610c90565b6103cb565b6040516101ca919061108e565b60405180910390f35b6101db610413565b6040516101e89190610f4c565b60405180910390f35b61020b60048036038101906102069190610d50565b6104a5565b6040516102189190610f31565b60405180910390f35b61023b60048036038101906102369190610d50565b61051c565b6040516102489190610f31565b60405180910390f35b61026b60048036038101906102669190610cbd565b61053f565b604051610278919061108e565b60405180910390f35b61029b60048036038101906102969190610d50565b6105c6565b005b6060600380546102ac906111be565b80601f01602080910402602001604051908101604052809291908181526020018280546102d8906111be565b80156103255780601f106102fa57610100808354040283529160200191610325565b820191906000526020600020905b81548152906001019060200180831161030857829003601f168201915b5050505050905090565b60008061033a61061c565b9050610347818585610624565b600191505092915050565b6000600254905090565b60008061036761061c565b90506103748582856107ef565b61037f85858561087b565b60019150509392505050565b60006012905090565b60008061039f61061c565b90506103c08185856103b1858961053f565b6103bb91906110e0565b610624565b600191505092915050565b60008060008373ffffffffffffffffffffffffffffffffffffffff1673ffffffffffffffffffffffffffffffffffffffff168152602001908152602001600020549050919050565b606060048054610422906111be565b80601f016020809104026020016040519081016040528092919081815260200182805461044e906111be565b801561049b5780601f106104705761010080835404028352916020019161049b565b820191906000526020600020905b81548152906001019060200180831161047e57829003601f168201915b5050505050905090565b6000806104b061061c565b905060006104be828661053f565b905083811015610503576040517f08c379a00000000000000000000000000000000000000000000000000000000081526004016104fa9061104e565b60405180910390fd5b6105108286868403610624565b60019250505092915050565b60008061052761061c565b905061053481858561087b565b600191505092915050565b6000600160008473ffffffffffffffffffffffffffffffffffffffff1673ffffffffffffffffffffffffffffffffffffffff16815260200190815260200160002060008373ffffffffffffffffffffffffffffffffffffffff1673ffffffffffffffffffffffffffffffffffffffff16815260200190815260200160002054905092915050565b620f4240600654111561060e576040517f08c379a000000000000000000000000000000000000000000000000000000000815260040161060590610f8e565b60405180910390fd5b6106188282610afc565b5050565b600033905090565b600073ffffffffffffffffffffffffffffffffffffffff168373ffffffffffffffffffffffffffffffffffffffff161415610694576040517f08c379a000000000000000000000000000000000000000000000000000000000815260040161068b9061102e565b60405180910390fd5b600073ffffffffffffffffffffffffffffffffffffffff168273ffffffffffffffffffffffffffffffffffffffff161415610704576040517f08c379a00000000000000000000000000000000000000000000000000000000081526004016106fb90610fae565b60405180910390fd5b80600160008573ffffffffffffffffffffffffffffffffffffffff1673ffffffffffffffffffffffffffffffffffffffff16815260200190815260200160002060008473ffffffffffffffffffffffffffffffffffffffff1673ffffffffffffffffffffffffffffffffffffffff168152602001908152602001600020819055508173ffffffffffffffffffffffffffffffffffffffff168373ffffffffffffffffffffffffffffffffffffffff167f8c5be1e5ebec7d5bd14f71427d1e84f3dd0314c0f7b2291e5b200ac8c7c3b925836040516107e2919061108e565b60405180910390a3505050565b60006107fb848461053f565b90507fffffffffffffffffffffffffffffffffffffffffffffffffffffffffffffffff81146108755781811015610867576040517f08c379a000000000000000000000000000000000000000000000000000000000815260040161085e90610fce565b60405180910390fd5b6108748484848403610624565b5b50505050565b600073ffffffffffffffffffffffffffffffffffffffff168373ffffffffffffffffffffffffffffffffffffffff1614156108eb576040517f08c379a00000000000000000000000000000000000000000000000000000000081526004016108e29061100e565b60405180910390fd5b600073ffffffffffffffffffffffffffffffffffffffff168273ffffffffffffffffffffffffffffffffffffffff16141561095b576040517f08c379a000000000000000000000000000000000000000000000000000000000815260040161095290610f6e565b60405180910390fd5b610966838383610c5c565b60008060008573ffffffffffffffffffffffffffffffffffffffff1673ffffffffffffffffffffffffffffffffffffffff168152602001908152602001600020549050818110156109ec576040517f08c379a00000000000000000000000000000000000000000000000000000000081526004016109e390610fee565b60405180910390fd5b8181036000808673ffffffffffffffffffffffffffffffffffffffff1673ffffffffffffffffffffffffffffffffffffffff16815260200190815260200160002081905550816000808573ffffffffffffffffffffffffffffffffffffffff1673ffffffffffffffffffffffffffffffffffffffff1681526020019081526020016000206000828254610a7f91906110e0565b925050819055508273ffffffffffffffffffffffffffffffffffffffff168473ffffffffffffffffffffffffffffffffffffffff167fddf252ad1be2c89b69c2b068fc378daa952ba7f163c4a11628f55a4df523b3ef84604051610ae3919061108e565b60405180910390a3610af6848484610c61565b50505050565b600073ffffffffffffffffffffffffffffffffffffffff168273ffffffffffffffffffffffffffffffffffffffff161415610b6c576040517f08c379a0000000000000000000000000000000000000000000000000000000008152600401610b639061106e565b60405180910390fd5b610b7860008383610c5c565b8060026000828254610b8a91906110e0565b92505081905550806000808473ffffffffffffffffffffffffffffffffffffffff1673ffffffffffffffffffffffffffffffffffffffff1681526020019081526020016000206000828254610bdf91906110e0565b925050819055508173ffffffffffffffffffffffffffffffffffffffff16600073ffffffffffffffffffffffffffffffffffffffff167fddf252ad1be2c89b69c2b068fc378daa952ba7f163c4a11628f55a4df523b3ef83604051610c44919061108e565b60405180910390a3610c5860008383610c61565b5050565b505050565b505050565b600081359050610c75816114b9565b92915050565b600081359050610c8a816114d0565b92915050565b600060208284031215610ca657610ca561124e565b5b6000610cb484828501610c66565b91505092915050565b60008060408385031215610cd457610cd361124e565b5b6000610ce285828601610c66565b9250506020610cf385828601610c66565b9150509250929050565b600080600060608486031215610d1657610d1561124e565b5b6000610d2486828701610c66565b9350506020610d3586828701610c66565b9250506040610d4686828701610c7b565b9150509250925092565b60008060408385031215610d6757610d6661124e565b5b6000610d7585828601610c66565b9250506020610d8685828601610c7b565b9150509250929050565b610d9981611148565b82525050565b6000610daa826110c4565b610db481856110cf565b9350610dc481856020860161118b565b610dcd81611253565b840191505092915050565b6000610de56023836110cf565b9150610df082611264565b604082019050919050565b6000610e086010836110cf565b9150610e13826112b3565b602082019050919050565b6000610e2b6022836110cf565b9150610e36826112dc565b604082019050919050565b6000610e4e601d836110cf565b9150610e598261132b565b602082019050919050565b6000610e716026836110cf565b9150610e7c82611354565b604082019050919050565b6000610e946025836110cf565b9150610e9f826113a3565b604082019050919050565b6000610eb76024836110cf565b9150610ec2826113f2565b604082019050919050565b6000610eda6025836110cf565b9150610ee582611441565b604082019050919050565b6000610efd601f836110cf565b9150610f0882611490565b602082019050919050565b610f1c81611174565b82525050565b610f2b8161117e565b82525050565b6000602082019050610f466000830184610d90565b92915050565b60006020820190508181036000830152610f668184610d9f565b905092915050565b60006020820190508181036000830152610f8781610dd8565b9050919050565b60006020820190508181036000830152610fa781610dfb565b9050919050565b60006020820190508181036000830152610fc781610e1e565b9050919050565b60006020820190508181036000830152610fe781610e41565b9050919050565b6000602082019050818103600083015261100781610e64565b9050919050565b6000602082019050818103600083015261102781610e87565b9050919050565b6000602082019050818103600083015261104781610eaa565b9050919050565b6000602082019050818103600083015261106781610ecd565b9050919050565b6000602082019050818103600083015261108781610ef0565b9050919050565b60006020820190506110a36000830184610f13565b92915050565b60006020820190506110be6000830184610f22565b92915050565b600081519050919050565b600082825260208201905092915050565b60006110eb82611174565b91506110f683611174565b9250827fffffffffffffffffffffffffffffffffffffffffffffffffffffffffffffffff0382111561112b5761112a6111f0565b5b828201905092915050565b600061114182611154565b9050919050565b60008115159050919050565b600073ffffffffffffffffffffffffffffffffffffffff82169050919050565b6000819050919050565b600060ff82169050919050565b60005b838110156111a957808201518184015260208101905061118e565b838111156111b8576000848401525b50505050565b600060028204905060018216806111d657607f821691505b602082108114156111ea576111e961121f565b5b50919050565b7f4e487b7100000000000000000000000000000000000000000000000000000000600052601160045260246000fd5b7f4e487b7100000000000000000000000000000000000000000000000000000000600052602260045260246000fd5b600080fd5b6000601f19601f8301169050919050565b7f45524332303a207472616e7366657220746f20746865207a65726f206164647260008201527f6573730000000000000000000000000000000000000000000000000000000000602082015250565b7f4d415820535550504c59204552524f5200000000000000000000000000000000600082015250565b7f45524332303a20617070726f766520746f20746865207a65726f20616464726560008201527f7373000000000000000000000000000000000000000000000000000000000000602082015250565b7f45524332303a20696e73756666696369656e7420616c6c6f77616e6365000000600082015250565b7f45524332303a207472616e7366657220616d6f756e742065786365656473206260008201527f616c616e63650000000000000000000000000000000000000000000000000000602082015250565b7f45524332303a207472616e736665722066726f6d20746865207a65726f20616460008201527f6472657373000000000000000000000000000000000000000000000000000000602082015250565b7f45524332303a20617070726f76652066726f6d20746865207a65726f2061646460008201527f7265737300000000000000000000000000000000000000000000000000000000602082015250565b7f45524332303a2064656372656173656420616c6c6f77616e63652062656c6f7760008201527f207a65726f000000000000000000000000000000000000000000000000000000602082015250565b7f45524332303a206d696e7420746f20746865207a65726f206164647265737300600082015250565b6114c281611136565b81146114cd57600080fd5b50565b6114d981611174565b81146114e457600080fd5b5056fea26469706673582212202a61abc997bf254fdf01a3593dfedcb8a8484d9a0f8c80bf0bacd7eec2ba74f864736f6c63430008070033",
  "immutableReferences": {},
  "source": "// SPDX-License-Identifier: MIT\n\npragma solidity ^0.8.7;\n\nimport \"@openzeppelin/contracts/token/ERC20/ERC20.sol\";\n\ncontract MyToken is ERC20 {\n\n  uint initialSupply;\n  uint maxSupply;\n\n  constructor (uint _initialSupply , uint _maxSupply) ERC20(\"MYTOKEN\" , \"MM\") {\n    _mint(msg.sender,_initialSupply);\n    maxSupply = _maxSupply;\n  }\n\n  function testMint (address owner , uint amount) public {\n    require(maxSupply <= 1000000 , \"MAX SUPPLY ERROR\");\n    _mint(owner,amount);\n  }\n\n}\n",
  "sourcePath": "/Users/pavel/truffleTest/contracts/MyToken.sol",
  "compiler": {
    "name": "solc",
    "version": "0.8.7+commit.e28d00a7.Emscripten.clang"
  },
  "schemaVersion": "3.3.4",
  "updatedAt": "2022-05-30T16:42:31.574Z",
  "devdoc": {
    "kind": "dev",
    "methods": {
      "allowance(address,address)": {
        "details": "See {IERC20-allowance}."
      },
      "approve(address,uint256)": {
        "details": "See {IERC20-approve}. NOTE: If `amount` is the maximum `uint256`, the allowance is not updated on `transferFrom`. This is semantically equivalent to an infinite approval. Requirements: - `spender` cannot be the zero address."
      },
      "balanceOf(address)": {
        "details": "See {IERC20-balanceOf}."
      },
      "decimals()": {
        "details": "Returns the number of decimals used to get its user representation. For example, if `decimals` equals `2`, a balance of `505` tokens should be displayed to a user as `5.05` (`505 / 10 ** 2`). Tokens usually opt for a value of 18, imitating the relationship between Ether and Wei. This is the value {ERC20} uses, unless this function is overridden; NOTE: This information is only used for _display_ purposes: it in no way affects any of the arithmetic of the contract, including {IERC20-balanceOf} and {IERC20-transfer}."
      },
      "decreaseAllowance(address,uint256)": {
        "details": "Atomically decreases the allowance granted to `spender` by the caller. This is an alternative to {approve} that can be used as a mitigation for problems described in {IERC20-approve}. Emits an {Approval} event indicating the updated allowance. Requirements: - `spender` cannot be the zero address. - `spender` must have allowance for the caller of at least `subtractedValue`."
      },
      "increaseAllowance(address,uint256)": {
        "details": "Atomically increases the allowance granted to `spender` by the caller. This is an alternative to {approve} that can be used as a mitigation for problems described in {IERC20-approve}. Emits an {Approval} event indicating the updated allowance. Requirements: - `spender` cannot be the zero address."
      },
      "name()": {
        "details": "Returns the name of the token."
      },
      "symbol()": {
        "details": "Returns the symbol of the token, usually a shorter version of the name."
      },
      "totalSupply()": {
        "details": "See {IERC20-totalSupply}."
      },
      "transfer(address,uint256)": {
        "details": "See {IERC20-transfer}. Requirements: - `to` cannot be the zero address. - the caller must have a balance of at least `amount`."
      },
      "transferFrom(address,address,uint256)": {
        "details": "See {IERC20-transferFrom}. Emits an {Approval} event indicating the updated allowance. This is not required by the EIP. See the note at the beginning of {ERC20}. NOTE: Does not update the allowance if the current allowance is the maximum `uint256`. Requirements: - `from` and `to` cannot be the zero address. - `from` must have a balance of at least `amount`. - the caller must have allowance for ``from``'s tokens of at least `amount`."
      }
    },
    "version": 1
  },
  "userdoc": {
    "kind": "user",
    "methods": {},
    "version": 1
  }
}